{"abi":[{"type":"constructor","inputs":[{"name":"_rootHash","type":"bytes32","internalType":"bytes32"},{"name":"_depositAmountWei","type":"uint256","internalType":"uint256"},{"name":"_signupSlots","type":"uint256","internalType":"uint256"}],"stateMutability":"nonpayable"},{"type":"function","name":"depositAmountWei","inputs":[],"outputs":[{"name":"","type":"uint256","internalType":"uint256"}],"stateMutability":"view"},{"type":"function","name":"depositedAmountByAddress","inputs":[{"name":"","type":"address","internalType":"address"}],"outputs":[{"name":"","type":"uint256","internalType":"uint256"}],"stateMutability":"view"},{"type":"function","name":"isSignedUp","inputs":[{"name":"account","type":"address","internalType":"address"}],"outputs":[{"name":"","type":"bool","internalType":"bool"}],"stateMutability":"view"},{"type":"function","name":"owner","inputs":[],"outputs":[{"name":"","type":"address","internalType":"address"}],"stateMutability":"view"},{"type":"function","name":"removeSignup","inputs":[{"name":"account","type":"address","internalType":"address"}],"outputs":[],"stateMutability":"nonpayable"},{"type":"function","name":"rootHash","inputs":[],"outputs":[{"name":"","type":"bytes32","internalType":"bytes32"}],"stateMutability":"view"},{"type":"function","name":"setDepositAmountWei","inputs":[{"name":"newDepositAmountWei","type":"uint256","internalType":"uint256"}],"outputs":[],"stateMutability":"nonpayable"},{"type":"function","name":"setRootHash","inputs":[{"name":"newRootHash","type":"bytes32","internalType":"bytes32"}],"outputs":[],"stateMutability":"nonpayable"},{"type":"function","name":"setSignupSlots","inputs":[{"name":"newSignupSlots","type":"uint256","internalType":"uint256"}],"outputs":[],"stateMutability":"nonpayable"},{"type":"function","name":"signup","inputs":[{"name":"proof","type":"bytes32[]","internalType":"bytes32[]"}],"outputs":[],"stateMutability":"payable"},{"type":"function","name":"signupByIndex","inputs":[{"name":"","type":"uint256","internalType":"uint256"}],"outputs":[{"name":"","type":"address","internalType":"address"}],"stateMutability":"view"},{"type":"function","name":"signupCount","inputs":[],"outputs":[{"name":"","type":"uint256","internalType":"uint256"}],"stateMutability":"view"},{"type":"function","name":"signupSlots","inputs":[],"outputs":[{"name":"","type":"uint256","internalType":"uint256"}],"stateMutability":"view"},{"type":"function","name":"transferOwnership","inputs":[{"name":"newOwner","type":"address","internalType":"address"}],"outputs":[],"stateMutability":"nonpayable"},{"type":"function","name":"withdraw","inputs":[{"name":"to","type":"address","internalType":"address payable"},{"name":"amount","type":"uint256","internalType":"uint256"}],"outputs":[],"stateMutability":"nonpayable"},{"type":"event","name":"DepositAmountUpdated","inputs":[{"name":"previousAmountWei","type":"uint256","indexed":false,"internalType":"uint256"},{"name":"newAmountWei","type":"uint256","indexed":false,"internalType":"uint256"}],"anonymous":false},{"type":"event","name":"OwnerUpdated","inputs":[{"name":"previousOwner","type":"address","indexed":true,"internalType":"address"},{"name":"newOwner","type":"address","indexed":true,"internalType":"address"}],"anonymous":false},{"type":"event","name":"RootHashUpdated","inputs":[{"name":"previousRootHash","type":"bytes32","indexed":false,"internalType":"bytes32"},{"name":"newRootHash","type":"bytes32","indexed":false,"internalType":"bytes32"}],"anonymous":false},{"type":"event","name":"SignedUp","inputs":[{"name":"account","type":"address","indexed":true,"internalType":"address"},{"name":"index","type":"uint256","indexed":true,"internalType":"uint256"},{"name":"amount","type":"uint256","indexed":false,"internalType":"uint256"}],"anonymous":false},{"type":"event","name":"SignupSlotsUpdated","inputs":[{"name":"previousSlots","type":"uint256","indexed":false,"internalType":"uint256"},{"name":"newSlots","type":"uint256","indexed":false,"internalType":"uint256"}],"anonymous":false},{"type":"event","name":"Withdrawn","inputs":[{"name":"to","type":"address","indexed":true,"internalType":"address"},{"name":"amount","type":"uint256","indexed":false,"internalType":"uint256"}],"anonymous":false},{"type":"error","name":"AlreadySignedUp","inputs":[]},{"type":"error","name":"IncorrectDeposit","inputs":[]},{"type":"error","name":"InvalidOwner","inputs":[]},{"type":"error","name":"InvalidProof","inputs":[]},{"type":"error","name":"NotOwner","inputs":[]},{"type":"error","name":"NotSignedUp","inputs":[]},{"type":"error","name":"RefundFailed","inputs":[]},{"type":"error","name":"SignupSlotsFull","inputs":[]},{"type":"error","name":"SlotsBelowCurrentSignups","inputs":[]}],"bytecode":{"object":"0x6080604052348015600e575f5ffd5b50604051610b3c380380610b3c833981016040819052602b91604c565b5f80546001600160a01b031916331790556002929092556001556003556076565b5f5f5f60608486031215605d575f5ffd5b5050815160208301516040909301519094929350919050565b610ab9806100835f395ff3fe6080604052600436106100e4575f3560e01c80634dba7ac311610087578063ce23f32f11610057578063ce23f32f14610272578063eabaa68f146102a6578063f2fde38b146102bb578063f3fef3a3146102da575f5ffd5b80634dba7ac3146101df5780635dd0cd38146101fe5780638da5cb5b1461021d578063b9321dce14610253575f5ffd5b806322b6ffca116100c257806322b6ffca1461015057806324a8ea52146101965780632a932c21146101ab5780632d7eae66146101c0575f5ffd5b80631a3092c0146100e85780631b533fd2146101265780631d80009a1461013b575b5f5ffd5b3480156100f3575f5ffd5b5061011361010236600461097c565b60046020525f908152604090205481565b6040519081526020015b60405180910390f35b348015610131575f5ffd5b5061011360065481565b348015610146575f5ffd5b5061011360025481565b34801561015b575f5ffd5b5061018661016a36600461097c565b6001600160a01b03165f90815260046020526040902054151590565b604051901515815260200161011d565b3480156101a1575f5ffd5b5061011360015481565b6101be6101b936600461099e565b6102f9565b005b3480156101cb575f5ffd5b506101be6101da366004610a0f565b610454565b3480156101ea575f5ffd5b506101be6101f9366004610a0f565b6104c4565b348015610209575f5ffd5b506101be61021836600461097c565b61054f565b348015610228575f5ffd5b505f5461023b906001600160a01b031681565b6040516001600160a01b03909116815260200161011d565b34801561025e575f5ffd5b506101be61026d366004610a0f565b610695565b34801561027d575f5ffd5b5061023b61028c366004610a0f565b60056020525f90815260409020546001600160a01b031681565b3480156102b1575f5ffd5b5061011360035481565b3480156102c6575f5ffd5b506101be6102d536600461097c565b6106fd565b3480156102e5575f5ffd5b506101be6102f4366004610a26565b61079d565b6003546006541061031d57604051632e60574f60e11b815260040160405180910390fd5b600154341461033f57604051633596131f60e21b815260040160405180910390fd5b335f908152600460205260409020541561036c57604051634740f26d60e01b815260040160405180910390fd5b604080513360601b6bffffffffffffffffffffffff191660208083019190915282516014818403018152603490920190925280519101206002545f906103b69085908590856108a4565b9050806103d6576040516309bde33960e01b815260040160405180910390fd5b6006545f81815260056020908152604080832080546001600160a01b03191633908117909155835260049091529020349055610413816001610a50565b600655604051348152819033907f9649f150b1822fa2e98d9756cb65914b88022a348d6a1fd3b1b718a70c2834079060200160405180910390a35050505050565b5f546001600160a01b0316331461047e576040516330cd747160e01b815260040160405180910390fd5b600280549082905560408051828152602081018490527f2c5e454ab10a3bb8f13831cd35da5f0dbef2c5ac1c80c171157ab07519e0974891015b60405180910390a15050565b5f546001600160a01b031633146104ee576040516330cd747160e01b815260040160405180910390fd5b60065481101561051157604051638021c1f360e01b815260040160405180910390fd5b600380549082905560408051828152602081018490527f29b90eaeae71f96caf7e07803d37a67965ef4a277fc3e2ada7f81a479c638e7f91016104b8565b5f546001600160a01b03163314610579576040516330cd747160e01b815260040160405180910390fd5b6001600160a01b0381165f90815260046020526040812054908190036105b2576040516308a91aa760e11b815260040160405180910390fd5b6001600160a01b0382165f9081526004602052604081208190555b60065481101561061f575f818152600560205260409020546001600160a01b03808516911603610617575f81815260056020526040902080546001600160a01b031916905561061f565b6001016105cd565b505f826001600160a01b0316826040515f6040518083038185875af1925050503d805f8114610669576040519150601f19603f3d011682016040523d82523d5f602084013e61066e565b606091505b505090508061069057604051633c31275160e21b815260040160405180910390fd5b505050565b5f546001600160a01b031633146106bf576040516330cd747160e01b815260040160405180910390fd5b600180549082905560408051828152602081018490527ffd021327d6433ee8f1950add99a55088902b53a5fdccc8efe490fbd38fe8705991016104b8565b5f546001600160a01b03163314610727576040516330cd747160e01b815260040160405180910390fd5b6001600160a01b03811661074e576040516349e27cff60e01b815260040160405180910390fd5b5f80546001600160a01b038381166001600160a01b0319831681178455604051919092169283917f8292fce18fa69edf4db7b94ea2e58241df0ae57f97e0a6c9b29067028bf92d769190a35050565b5f546001600160a01b031633146107c7576040516330cd747160e01b815260040160405180910390fd5b5f826001600160a01b0316826040515f6040518083038185875af1925050503d805f8114610810576040519150601f19603f3d011682016040523d82523d5f602084013e610815565b606091505b505090508061085c5760405162461bcd60e51b815260206004820152600f60248201526e15da5d1a191c985dc819985a5b1959608a1b604482015260640160405180910390fd5b826001600160a01b03167f7084f5476618d8e60b11ef0d7d3f06914655adb8793e28ff7f018d4c76d505d58360405161089791815260200190565b60405180910390a2505050565b5f826108b18686856108bb565b1495945050505050565b805f5b838110156108f2576108e8828686848181106108dc576108dc610a6f565b905060200201356108fa565b91506001016108be565b509392505050565b5f8183106109315760408051602081018490529081018490526060016040516020818303038152906040528051906020012061095c565b6040805160208101859052908101839052606001604051602081830303815290604052805190602001205b90505b92915050565b6001600160a01b0381168114610979575f5ffd5b50565b5f6020828403121561098c575f5ffd5b813561099781610965565b9392505050565b5f5f602083850312156109af575f5ffd5b823567ffffffffffffffff8111156109c5575f5ffd5b8301601f810185136109d5575f5ffd5b803567ffffffffffffffff8111156109eb575f5ffd5b8560208260051b84010111156109ff575f5ffd5b6020919091019590945092505050565b5f60208284031215610a1f575f5ffd5b5035919050565b5f5f60408385031215610a37575f5ffd5b8235610a4281610965565b946020939093013593505050565b8082018082111561095f57634e487b7160e01b5f52601160045260245ffd5b634e487b7160e01b5f52603260045260245ffdfea2646970667358221220f7815295bb2ddea500ebebd98be2a915fd2847618fb1e9c70fba41753604795764736f6c634300081c0033","linkReferences":{}},"methodIdentifiers":{"depositAmountWei()":"24a8ea52","depositedAmountByAddress(address)":"1a3092c0","isSignedUp(address)":"22b6ffca","owner()":"8da5cb5b","removeSignup(address)":"5dd0cd38","rootHash()":"1d80009a","setDepositAmountWei(uint256)":"b9321dce","setRootHash(bytes32)":"2d7eae66","setSignupSlots(uint256)":"4dba7ac3","signup(bytes32[])":"2a932c21","signupByIndex(uint256)":"ce23f32f","signupCount()":"1b533fd2","signupSlots()":"eabaa68f","transferOwnership(address)":"f2fde38b","withdraw(address,uint256)":"f3fef3a3"},"id":0}