{"abi":[{"type":"constructor","inputs":[{"name":"_rootHash","type":"bytes32","internalType":"bytes32"},{"name":"_depositAmountWei","type":"uint256","internalType":"uint256"},{"name":"_signupSlots","type":"uint256","internalType":"uint256"}],"stateMutability":"nonpayable"},{"type":"function","name":"depositAmountWei","inputs":[],"outputs":[{"name":"","type":"uint256","internalType":"uint256"}],"stateMutability":"view"},{"type":"function","name":"depositedAmountByAddress","inputs":[{"name":"","type":"address","internalType":"address"}],"outputs":[{"name":"","type":"uint256","internalType":"uint256"}],"stateMutability":"view"},{"type":"function","name":"isSignedUp","inputs":[{"name":"account","type":"address","internalType":"address"}],"outputs":[{"name":"","type":"bool","internalType":"bool"}],"stateMutability":"view"},{"type":"function","name":"owner","inputs":[],"outputs":[{"name":"","type":"address","internalType":"address"}],"stateMutability":"view"},{"type":"function","name":"removeSignup","inputs":[{"name":"account","type":"address","internalType":"address"}],"outputs":[],"stateMutability":"nonpayable"},{"type":"function","name":"rootHash","inputs":[],"outputs":[{"name":"","type":"bytes32","internalType":"bytes32"}],"stateMutability":"view"},{"type":"function","name":"setDepositAmountWei","inputs":[{"name":"v","type":"uint256","internalType":"uint256"}],"outputs":[],"stateMutability":"nonpayable"},{"type":"function","name":"setRootHash","inputs":[{"name":"v","type":"bytes32","internalType":"bytes32"}],"outputs":[],"stateMutability":"nonpayable"},{"type":"function","name":"setSignupSlots","inputs":[{"name":"v","type":"uint256","internalType":"uint256"}],"outputs":[],"stateMutability":"nonpayable"},{"type":"function","name":"signup","inputs":[{"name":"proof","type":"bytes[]","internalType":"bytes[]"}],"outputs":[],"stateMutability":"payable"},{"type":"function","name":"signupByIndex","inputs":[{"name":"","type":"uint256","internalType":"uint256"}],"outputs":[{"name":"","type":"address","internalType":"address"}],"stateMutability":"view"},{"type":"function","name":"signupCount","inputs":[],"outputs":[{"name":"","type":"uint256","internalType":"uint256"}],"stateMutability":"view"},{"type":"function","name":"signupSlots","inputs":[],"outputs":[{"name":"","type":"uint256","internalType":"uint256"}],"stateMutability":"view"},{"type":"function","name":"transferOwnership","inputs":[{"name":"newOwner","type":"address","internalType":"address"}],"outputs":[],"stateMutability":"nonpayable"},{"type":"function","name":"withdraw","inputs":[{"name":"to","type":"address","internalType":"address payable"},{"name":"amount","type":"uint256","internalType":"uint256"}],"outputs":[],"stateMutability":"nonpayable"},{"type":"event","name":"DepositAmountUpdated","inputs":[{"name":"previousAmountWei","type":"uint256","indexed":false,"internalType":"uint256"},{"name":"newAmountWei","type":"uint256","indexed":false,"internalType":"uint256"}],"anonymous":false},{"type":"event","name":"OwnerUpdated","inputs":[{"name":"previousOwner","type":"address","indexed":true,"internalType":"address"},{"name":"newOwner","type":"address","indexed":true,"internalType":"address"}],"anonymous":false},{"type":"event","name":"RootHashUpdated","inputs":[{"name":"previousRootHash","type":"bytes32","indexed":false,"internalType":"bytes32"},{"name":"newRootHash","type":"bytes32","indexed":false,"internalType":"bytes32"}],"anonymous":false},{"type":"event","name":"SignedUp","inputs":[{"name":"account","type":"address","indexed":true,"internalType":"address"},{"name":"index","type":"uint256","indexed":true,"internalType":"uint256"},{"name":"amount","type":"uint256","indexed":false,"internalType":"uint256"}],"anonymous":false},{"type":"event","name":"SignupSlotsUpdated","inputs":[{"name":"previousSlots","type":"uint256","indexed":false,"internalType":"uint256"},{"name":"newSlots","type":"uint256","indexed":false,"internalType":"uint256"}],"anonymous":false},{"type":"event","name":"Withdrawn","inputs":[{"name":"to","type":"address","indexed":true,"internalType":"address"},{"name":"amount","type":"uint256","indexed":false,"internalType":"uint256"}],"anonymous":false},{"type":"error","name":"AlreadySignedUp","inputs":[]},{"type":"error","name":"HashMismatch","inputs":[{"name":"index","type":"uint256","internalType":"uint256"}]},{"type":"error","name":"IncorrectDeposit","inputs":[]},{"type":"error","name":"InvalidOwner","inputs":[]},{"type":"error","name":"InvalidProof","inputs":[]},{"type":"error","name":"NotOwner","inputs":[]},{"type":"error","name":"NotSignedUp","inputs":[]},{"type":"error","name":"PathMismatch","inputs":[]},{"type":"error","name":"ProofIncomplete","inputs":[]},{"type":"error","name":"RefundFailed","inputs":[]},{"type":"error","name":"SignupSlotsFull","inputs":[]},{"type":"error","name":"SlotsBelowCurrentSignups","inputs":[]},{"type":"error","name":"ZeroBalance","inputs":[]}],"bytecode":{"object":"0x608034607257601f6112dd38819003918201601f19168301916001600160401b03831184841017607657808492606094604052833981010312607257805160208201516040928301515f80546001600160a01b0319163317905560029290925560015560035551611252908161008b8239f35b5f80fd5b634e487b7160e01b5f52604160045260245ffdfe60806040526004361015610011575f80fd5b5f3560e01c806302641496146101045780631a3092c0146100ff5780631b533fd2146100fa5780631d80009a146100f557806322b6ffca146100f057806324a8ea52146100eb5780632d7eae66146100e65780634dba7ac3146100e15780635dd0cd38146100dc5780638da5cb5b146100d7578063b9321dce146100d2578063ce23f32f146100cd578063eabaa68f146100c8578063f2fde38b146100c35763f3fef3a3146100be575f80fd5b610672565b6105ec565b6105cf565b61059d565b61053e565b610517565b61041a565b6103a3565b610337565b61031a565b6102dd565b6102c0565b6102a3565b610268565b60203660031901126102535760043567ffffffffffffffff811161025357366023820112156102535780600401359067ffffffffffffffff8211610253573660248360051b83010111610253576006549160035483101561024457600154340361023557335f9081526004602052604090205461022657602461018b9201336002546107f4565b15610217576101c5336101a6835f52600560205260405f2090565b80546001600160a01b0319166001600160a01b03909216919091179055565b335f9081526004602052604090203490556101e76101e28261073d565b600655565b60405134815233907f9649f150b1822fa2e98d9756cb65914b88022a348d6a1fd3b1b718a70c28340790602090a3005b63334ab3f560e11b5f5260045ffd5b634740f26d60e01b5f5260045ffd5b633596131f60e21b5f5260045ffd5b632e60574f60e11b5f5260045ffd5b5f80fd5b6001600160a01b0381160361025357565b346102535760203660031901126102535760043561028581610257565b60018060a01b03165f526004602052602060405f2054604051908152f35b34610253575f366003190112610253576020600654604051908152f35b34610253575f366003190112610253576020600254604051908152f35b34610253576020366003190112610253576004356102fa81610257565b60018060a01b03165f526004602052602060405f20541515604051908152f35b34610253575f366003190112610253576020600154604051908152f35b34610253576020366003190112610253575f54600435906001600160a01b03163303610394577f2c5e454ab10a3bb8f13831cd35da5f0dbef2c5ac1c80c171157ab07519e0974860406002548151908152836020820152a1600255005b6330cd747160e01b5f5260045ffd5b34610253576020366003190112610253575f54600435906001600160a01b0316330361039457600654811061040b5760035460408051918252602082018390527f29b90eaeae71f96caf7e07803d37a67965ef4a277fc3e2ada7f81a479c638e7f91a1600355005b638021c1f360e01b5f5260045ffd5b346102535760203660031901126102535760043561043781610257565b5f546001600160a01b03163303610394576001600160a01b0381165f90815260046020526040902054908115610508576001600160a01b03165f8181526004602052604081208190555b6006548110156104fc575f818152600560205260409020546001600160a01b031682146104b057600101610481565b5f809381936104db6104cb84955f52600560205260405f2090565b80546001600160a01b0319169055565b5af16104e56107c5565b50156104ed57005b633c31275160e21b5f5260045ffd5b505f80809381936104db565b6308a91aa760e11b5f5260045ffd5b34610253575f366003190112610253575f546040516001600160a01b039091168152602090f35b34610253576020366003190112610253575f54600435906001600160a01b031633036103945760015460408051918252602082018390527ffd021327d6433ee8f1950add99a55088902b53a5fdccc8efe490fbd38fe8705991a1600155005b34610253576020366003190112610253576004355f526005602052602060018060a01b0360405f205416604051908152f35b34610253575f366003190112610253576020600354604051908152f35b346102535760203660031901126102535760043561060981610257565b5f546001600160a01b0381169133839003610394576001600160a01b03169182156106635782907f8292fce18fa69edf4db7b94ea2e58241df0ae57f97e0a6c9b29067028bf92d765f80a36001600160a01b031916175f55005b6349e27cff60e01b5f5260045ffd5b346102535760403660031901126102535760043561068f81610257565b5f5460243591906001600160a01b03163303610394576001600160a01b0316905f80808084865af16106bf6107c5565b50156106f25760207f7084f5476618d8e60b11ef0d7d3f06914655adb8793e28ff7f018d4c76d505d591604051908152a2005b60405162461bcd60e51b815260206004820152600f60248201526e15da5d1a191c985dc819985a5b1959608a1b6044820152606490fd5b634e487b7160e01b5f52601160045260245ffd5b906001820180921161074b57565b610729565b9190820180921161074b57565b634e487b7160e01b5f52604160045260245ffd5b90601f8019910116810190811067ffffffffffffffff82111761079357604052565b61075d565b604051906107a7606083610771565b565b67ffffffffffffffff811161079357601f01601f191660200190565b3d156107ef573d906107d6826107a9565b916107e46040519384610771565b82523d5f602084013e565b606090565b61084793929160405160208101916bffffffffffffffffffffffff199060601b16825260148152610826603482610771565b5190209060405191602083015260208252610842604083610771565b610980565b9061085b61085483610c20565b5083610f2c565b60208101915f9190825b84518410156108985782519084820180921161074b576108876001928861093e565b5160f81c9060081b17930192610865565b945092505050565b634e487b7160e01b5f52603260045260245ffd5b91908110156108f65760051b81013590601e198136030182121561025357019081359167ffffffffffffffff8311610253576020018236038113610253579190565b6108a0565b929192610907826107a9565b916109156040519384610771565b829481845281830111610253578281602093845f960137010152565b8051156108f65760200190565b9081518110156108f6570160200190565b908160011b918083046002149015171561074b57565b9190820391821161074b57565b5f19811461074b5760010190565b5f94928592915b85871061099d5763aa28901d60e01b5f5260045ffd5b6109b26109ab8888856108b4565b36916108fb565b908151602083012003610b91576109c881610c20565b506109d38183611091565b60118103610a50575060408514610a3157610a02906109fb6109f487610972565b9686611153565b908361103d565b90602082015115610a2257600191610a199161118d565b965b0195610987565b63aa28901d60e01b5f5260045ffd5b925093955050610a4d9350610a47915082610ff4565b906110ce565b90565b90949190600203610b5c57610a6e610a688683610fad565b826110ce565b610a9d610a94610a8e610a8084610931565b516001600160f81b03191690565b60f81c90565b60041c600f1690565b92600180851603610b535760ff60015b16610ac181610abc855161094f565b610965565b925f5b848110610b1157505050610ae6610adf60029360ff93610750565b9784610f2c565b93161015610b0057600191610afa9161118d565b96610a1b565b93509395505050610a4d92506110ce565b610b24610b1e8285610750565b83611153565b610b37610b318387610750565b8b611153565b03610b4457600101610ac4565b633630721760e11b5f5260045ffd5b60ff6002610aad565b60405162461bcd60e51b815260206004820152600d60248201526c4d50543a20626164206e6f646560981b6044820152606490fd5b63eed0309360e01b5f52600487905260245ffd5b604051906060820182811067ffffffffffffffff821117610793576040525f6040838281528260208201520152565b60ff60f6199116019060ff821161074b57565b60ff60bf199116019060ff821161074b57565b60ff60b6199116019060ff821161074b57565b60ff607f199116019060ff821161074b57565b90610c29610ba5565b50610c3a610a8e610a805f8561093e565b60ff81166080811015610c6d5750509050610c53610798565b5f8152600160208201525f604082015290610a4d5f61073d565b60b78111610cbe5750610c8b919250610c8590610c0d565b60ff1690565b90610a4d610c985f61073d565b610ca0610798565b9081528360208201525f604082015292610cb95f61073d565b610750565b60bf8111610d1b5750610cea610cd9610c85610a4d93610bfa565b8094610ce45f61073d565b906111da565b610cb9610cfa85610cb95f61073d565b610d02610798565b9081528260208201525f604082015294610cb95f61073d565b9192909160f710610d685750610c85610d3391610be7565b90610a4d610d405f61073d565b610d48610798565b908152836020820152610d5e6040820160019052565b92610cb95f61073d565b9190610d7c610cd9610c85610a4d93610bd4565b610cb9610d8c85610cb95f61073d565b610d94610798565b908152826020820152610daa6040820160019052565b94610cb95f61073d565b919091610dbf610ba5565b50610dd0610a8e610a80858461093e565b9060ff82166080811015610e0257505050610a4d610dec610798565b838152600160208201525f60408201529261073d565b60b78111610e44575050610e1b610c85610a4d92610c0d565b610cb9610e278561073d565b610e2f610798565b9081528260208201525f60408201529461073d565b60bf8111610e9b5750610cb9610e6d610e62610c85610a4d95610bfa565b8093610ce48861073d565b91610cb9610e7e82610cb98961073d565b610e86610798565b9081528460208201525f60408201529661073d565b60f710610ee25750610eb2610c85610a4d92610be7565b610cb9610ebe8561073d565b610ec6610798565b908152826020820152610edc6040820160019052565b9461073d565b610cb9610ef7610e62610c85610a4d95610bd4565b91610cb9610f0882610cb98961073d565b610f10610798565b908152846020820152610f266040820160019052565b9661073d565b610f34610ba5565b506020825192015182019182811161074b575f905b83811015610f7d57610f5b9083610db4565b9060018314610f755750610f6f9091610972565b90610f49565b935050505090565b60405162461bcd60e51b81526020600482015260086024820152672926281d1037b7b160c11b6044820152606490fd5b610fb5610ba5565b506020825192015182019182811161074b575f905b83811015610f7d57610fdc9083610db4565b908215610f755750610fee9091610972565b90610fca565b610ffc610ba5565b506020825192015182019182811161074b575f905b83811015610f7d576110239083610db4565b9060108314610f7557506110379091610972565b90611011565b919091611048610ba5565b506020835193015183019283811161074b575f905b84811015610f7d5761106f9083610db4565b9084831461108857506110829091610972565b9061105d565b94505050505090565b91905f9260208251920151820180831161074b57915b8281106110b357505050565b6110c06110c89183610db4565b959050610972565b936110a7565b9160208201918251916110e0836107a9565b926110ee6040519485610771565b8084526110fd601f19916107a9565b0136602085013782905f5b855181101561114a5783519080820180921161074b576001916001600160f81b031990611135908a61093e565b51165f1a611143828861093e565b5301611108565b50935093505050565b60ff91600f91600182166111775761116e9160011c9061093e565b5160fc1c161690565b6111849160011c9061093e565b5160f81c161690565b602080830151036111a2576020915101015190565b60405162461bcd60e51b815260206004820152601060248201526f2926281d103737ba10313cba32b9999960811b6044820152606490fd5b5f93928492915b8184106111ee5750505050565b909192948584019081851161074b576112096001928461093e565b5160f81c9060081b1795019291906111e156fea26469706673582212208b114e727afeb2035f3feca4b60e99f67e5cb88336a9ff31e9ce8b9b452243c364736f6c634300081c0033","linkReferences":{}},"methodIdentifiers":{"depositAmountWei()":"24a8ea52","depositedAmountByAddress(address)":"1a3092c0","isSignedUp(address)":"22b6ffca","owner()":"8da5cb5b","removeSignup(address)":"5dd0cd38","rootHash()":"1d80009a","setDepositAmountWei(uint256)":"b9321dce","setRootHash(bytes32)":"2d7eae66","setSignupSlots(uint256)":"4dba7ac3","signup(bytes[])":"02641496","signupByIndex(uint256)":"ce23f32f","signupCount()":"1b533fd2","signupSlots()":"eabaa68f","transferOwnership(address)":"f2fde38b","withdraw(address,uint256)":"f3fef3a3"},"id":16}