{"abi":[{"type":"function","name":"greeting","inputs":[],"outputs":[{"name":"","type":"string","internalType":"string"}],"stateMutability":"view"},{"type":"function","name":"setGreeting","inputs":[{"name":"newGreeting","type":"string","internalType":"string"}],"outputs":[],"stateMutability":"nonpayable"}],"bytecode":{"object":"0x60c0604052600d60809081526c48656c6c6f2c20576f726c642160981b60a0525f9061002b90826100d5565b50348015610037575f5ffd5b5061018f565b634e487b7160e01b5f52604160045260245ffd5b600181811c9082168061006557607f821691505b60208210810361008357634e487b7160e01b5f52602260045260245ffd5b50919050565b601f8211156100d057805f5260205f20601f840160051c810160208510156100ae5750805b601f840160051c820191505b818110156100cd575f81556001016100ba565b50505b505050565b81516001600160401b038111156100ee576100ee61003d565b610102816100fc8454610051565b84610089565b6020601f821160018114610134575f831561011d5750848201515b5f19600385901b1c1916600184901b1784556100cd565b5f84815260208120601f198516915b828110156101635787850151825560209485019460019092019101610143565b508482101561018057868401515f19600387901b60f8161c191681555b50505050600190811b01905550565b6103318061019c5f395ff3fe608060405234801561000f575f5ffd5b5060043610610034575f3560e01c8063a413686214610038578063ef690cc01461004d575b5f5ffd5b61004b610046366004610107565b61006b565b005b61005561007c565b6040516100629190610175565b60405180910390f35b5f610077828483610241565b505050565b5f8054610088906101be565b80601f01602080910402602001604051908101604052809291908181526020018280546100b4906101be565b80156100ff5780601f106100d6576101008083540402835291602001916100ff565b820191905f5260205f20905b8154815290600101906020018083116100e257829003601f168201915b505050505081565b5f5f60208385031215610118575f5ffd5b823567ffffffffffffffff81111561012e575f5ffd5b8301601f8101851361013e575f5ffd5b803567ffffffffffffffff811115610154575f5ffd5b856020828401011115610165575f5ffd5b6020919091019590945092505050565b602081525f82518060208401528060208501604085015e5f604082850101526040601f19601f83011684010191505092915050565b634e487b7160e01b5f52604160045260245ffd5b600181811c908216806101d257607f821691505b6020821081036101f057634e487b7160e01b5f52602260045260245ffd5b50919050565b601f82111561007757805f5260205f20601f840160051c8101602085101561021b5750805b601f840160051c820191505b8181101561023a575f8155600101610227565b5050505050565b67ffffffffffffffff831115610259576102596101aa565b61026d8361026783546101be565b836101f6565b5f601f84116001811461029e575f85156102875750838201355b5f19600387901b1c1916600186901b17835561023a565b5f83815260208120601f198716915b828110156102cd57868501358255602094850194600190920191016102ad565b50868210156102e9575f1960f88860031b161c19848701351681555b505060018560011b018355505050505056fea26469706673582212209a2e6d8cd1f0639a581db4691e5e9a7713604c1c4225eda4cba51c32bc5e7bcb64736f6c634300081c0033","linkReferences":{}},"methodIdentifiers":{"greeting()":"ef690cc0","setGreeting(string)":"a4136862"},"id":0}